{
  "contractName": "Auth",
  "abi": [
    {
      "constant": false,
      "inputs": [
        {
          "internalType": "address",
          "name": "_address",
          "type": "address"
        },
        {
          "internalType": "string",
          "name": "_name",
          "type": "string"
        },
        {
          "internalType": "string",
          "name": "_password",
          "type": "string"
        },
        {
          "internalType": "string",
          "name": "_balance",
          "type": "string"
        },
        {
          "internalType": "string",
          "name": "_cnic",
          "type": "string"
        }
      ],
      "name": "register",
      "outputs": [
        {
          "internalType": "bool",
          "name": "",
          "type": "bool"
        }
      ],
      "payable": false,
      "stateMutability": "nonpayable",
      "type": "function"
    },
    {
      "constant": false,
      "inputs": [
        {
          "internalType": "string",
          "name": "_cnic",
          "type": "string"
        },
        {
          "internalType": "string",
          "name": "_password",
          "type": "string"
        }
      ],
      "name": "login",
      "outputs": [
        {
          "internalType": "bool",
          "name": "",
          "type": "bool"
        }
      ],
      "payable": false,
      "stateMutability": "nonpayable",
      "type": "function"
    }
  ],
  "bytecode": "0x608060405234801561001057600080fd5b50610a71806100206000396000f3fe608060405234801561001057600080fd5b50600436106100365760003560e01c80633a8820e51461003b57806358467dbc146102f3575b600080fd5b6102d9600480360360a081101561005157600080fd5b81019080803573ffffffffffffffffffffffffffffffffffffffff1690602001909291908035906020019064010000000081111561008e57600080fd5b8201836020820111156100a057600080fd5b803590602001918460018302840111640100000000831117156100c257600080fd5b91908080601f016020809104026020016040519081016040528093929190818152602001838380828437600081840152601f19601f8201169050808301925050505050505091929192908035906020019064010000000081111561012557600080fd5b82018360208201111561013757600080fd5b8035906020019184600183028401116401000000008311171561015957600080fd5b91908080601f016020809104026020016040519081016040528093929190818152602001838380828437600081840152601f19601f820116905080830192505050505050509192919290803590602001906401000000008111156101bc57600080fd5b8201836020820111156101ce57600080fd5b803590602001918460018302840111640100000000831117156101f057600080fd5b91908080601f016020809104026020016040519081016040528093929190818152602001838380828437600081840152601f19601f8201169050808301925050505050505091929192908035906020019064010000000081111561025357600080fd5b82018360208201111561026557600080fd5b8035906020019184600183028401116401000000008311171561028757600080fd5b91908080601f016020809104026020016040519081016040528093929190818152602001838380828437600081840152601f19601f82011690508083019250505050505050919291929050505061045d565b604051808215151515815260200191505060405180910390f35b6104436004803603604081101561030957600080fd5b810190808035906020019064010000000081111561032657600080fd5b82018360208201111561033857600080fd5b8035906020019184600183028401116401000000008311171561035a57600080fd5b91908080601f016020809104026020016040519081016040528093929190818152602001838380828437600081840152601f19601f820116905080830192505050505050509192919290803590602001906401000000008111156103bd57600080fd5b8201836020820111156103cf57600080fd5b803590602001918460018302840111640100000000831117156103f157600080fd5b91908080601f016020809104026020016040519081016040528093929190818152602001838380828437600081840152601f19601f82011690508083019250505050505050919291929050505061071b565b604051808215151515815260200191505060405180910390f35b6000856000836040518082805190602001908083835b602083106104965780518252602082019150602081019050602083039250610473565b6001836020036101000a038019825116818451168082178552505050505050905001915050908152602001604051809103902060000160006101000a81548173ffffffffffffffffffffffffffffffffffffffff021916908373ffffffffffffffffffffffffffffffffffffffff160217905550846000836040518082805190602001908083835b60208310610541578051825260208201915060208101905060208303925061051e565b6001836020036101000a0380198251168184511680821785525050505050509050019150509081526020016040518091039020600101908051906020019061058a929190610997565b50836000836040518082805190602001908083835b602083106105c2578051825260208201915060208101905060208303925061059f565b6001836020036101000a0380198251168184511680821785525050505050509050019150509081526020016040518091039020600201908051906020019061060b929190610997565b50826000836040518082805190602001908083835b602083106106435780518252602082019150602081019050602083039250610620565b6001836020036101000a0380198251168184511680821785525050505050509050019150509081526020016040518091039020600301908051906020019061068c929190610997565b50816000836040518082805190602001908083835b602083106106c457805182526020820191506020810190506020830392506106a1565b6001836020036101000a0380198251168184511680821785525050505050509050019150509081526020016040518091039020600401908051906020019061070d929190610997565b506001905095945050505050565b6000816040516020018082805190602001908083835b602083106107545780518252602082019150602081019050602083039250610731565b6001836020036101000a038019825116818451168082178552505050505050905001915050604051602081830303815290604052805190602001206000846040518082805190602001908083835b602083106107c557805182526020820191506020810190506020830392506107a2565b6001836020036101000a038019825116818451168082178552505050505050905001915050908152602001604051809103902060020160405160200180828054600181600116156101000203166002900480156108595780601f10610837576101008083540402835291820191610859565b820191906000526020600020905b815481529060010190602001808311610845575b50509150506040516020818303038152906040528051906020012014156109085760016000846040518082805190602001908083835b602083106108b2578051825260208201915060208101905060208303925061088f565b6001836020036101000a038019825116818451168082178552505050505050905001915050908152602001604051809103902060050160006101000a81548160ff02191690831515021790555060019050610991565b600080846040518082805190602001908083835b6020831061093f578051825260208201915060208101905060208303925061091c565b6001836020036101000a038019825116818451168082178552505050505050905001915050908152602001604051809103902060050160006101000a81548160ff021916908315150217905550600090505b92915050565b828054600181600116156101000203166002900490600052602060002090601f016020900481019282601f106109d857805160ff1916838001178555610a06565b82800160010185558215610a06579182015b82811115610a055782518255916020019190600101906109ea565b5b509050610a139190610a17565b5090565b610a3991905b80821115610a35576000816000905550600101610a1d565b5090565b9056fea265627a7a7231582083e72aebf4d89aa50aa54695b3ddcf00f8da456b9d40f64b505bee7d74d7c89164736f6c63430005100032",
  "source": "pragma solidity >=0.4.0 <0.6.0;\n\ncontract Auth {\n    // authentication function\n\n    struct UserDetail {\n        address addr;\n        string name;\n        string password;\n        string balance;\n        string CNIC;\n        bool isUserLoggedIn;\n    }\n\n    mapping(string => UserDetail) user;\n\n    // user registration function\n    function register(\n        address _address,\n        string memory _name,\n        string memory _password,\n        string memory _balance,\n        string memory _cnic\n    ) public returns (bool) {\n        user[_cnic].addr = _address;\n        user[_cnic].name = _name;\n        user[_cnic].password = _password;\n        user[_cnic].balance = _balance;\n        user[_cnic].CNIC = _cnic;\n        return true;\n    }\n\n    function login(string memory _cnic, string memory _password)\n        public\n        returns (bool)\n    {\n        if (keccak256(abi.encodePacked(user[_cnic].password)) == keccak256(abi.encodePacked(_password))) {\n             user[_cnic].isUserLoggedIn = true;\n            return true;\n        } else {\n             user[_cnic].isUserLoggedIn = false;\n            return false;\n        }\n    }\n}\n",
  "sourcePath": "/home/zaryab/VSCodeProjects/dapp-authentication/contracts/Auth.sol",
  "compiler": {
    "name": "solc",
    "version": "0.5.16+commit.9c3226ce.Emscripten.clang"
  },
  "schemaVersion": "3.4.1",
  "updatedAt": "2021-08-11T10:16:13.651Z",
  "networkType": "ethereum",
  "devdoc": {
    "methods": {}
  },
  "userdoc": {
    "methods": {}
  }
}