{
  "contractName": "AuthContract",
  "abi": [
    {
      "constant": false,
      "inputs": [
        {
          "internalType": "address",
          "name": "_address",
          "type": "address"
        },
        {
          "internalType": "string",
          "name": "_name",
          "type": "string"
        },
        {
          "internalType": "string",
          "name": "_password",
          "type": "string"
        },
        {
          "internalType": "uint256",
          "name": "_balance",
          "type": "uint256"
        },
        {
          "internalType": "string",
          "name": "_cnic",
          "type": "string"
        }
      ],
      "name": "register",
      "outputs": [
        {
          "internalType": "bool",
          "name": "",
          "type": "bool"
        }
      ],
      "payable": false,
      "stateMutability": "nonpayable",
      "type": "function"
    },
    {
      "constant": false,
      "inputs": [
        {
          "internalType": "string",
          "name": "_cnic",
          "type": "string"
        },
        {
          "internalType": "string",
          "name": "_password",
          "type": "string"
        }
      ],
      "name": "login",
      "outputs": [
        {
          "internalType": "bool",
          "name": "",
          "type": "bool"
        }
      ],
      "payable": false,
      "stateMutability": "nonpayable",
      "type": "function"
    }
  ],
  "bytecode": "0x608060405234801561001057600080fd5b506108cb806100206000396000f3fe608060405234801561001057600080fd5b50600436106100365760003560e01c806358467dbc1461003b578063ecbabfbc146101a5575b600080fd5b61018b6004803603604081101561005157600080fd5b810190808035906020019064010000000081111561006e57600080fd5b82018360208201111561008057600080fd5b803590602001918460018302840111640100000000831117156100a257600080fd5b91908080601f016020809104026020016040519081016040528093929190818152602001838380828437600081840152601f19601f8201169050808301925050505050505091929192908035906020019064010000000081111561010557600080fd5b82018360208201111561011757600080fd5b8035906020019184600183028401116401000000008311171561013957600080fd5b91908080601f016020809104026020016040519081016040528093929190818152602001838380828437600081840152601f19601f8201169050808301925050505050505091929192905050506103d0565b604051808215151515815260200191505060405180910390f35b6103b6600480360360a08110156101bb57600080fd5b81019080803573ffffffffffffffffffffffffffffffffffffffff169060200190929190803590602001906401000000008111156101f857600080fd5b82018360208201111561020a57600080fd5b8035906020019184600183028401116401000000008311171561022c57600080fd5b91908080601f016020809104026020016040519081016040528093929190818152602001838380828437600081840152601f19601f8201169050808301925050505050505091929192908035906020019064010000000081111561028f57600080fd5b8201836020820111156102a157600080fd5b803590602001918460018302840111640100000000831117156102c357600080fd5b91908080601f016020809104026020016040519081016040528093929190818152602001838380828437600081840152601f19601f820116905080830192505050505050509192919290803590602001909291908035906020019064010000000081111561033057600080fd5b82018360208201111561034257600080fd5b8035906020019184600183028401116401000000008311171561036457600080fd5b91908080601f016020809104026020016040519081016040528093929190818152602001838380828437600081840152601f19601f820116905080830192505050505050509192919290505050610543565b604051808215151515815260200191505060405180910390f35b6000816040516020018082805190602001908083835b6020831061040957805182526020820191506020810190506020830392506103e6565b6001836020036101000a038019825116818451168082178552505050505050905001915050604051602081830303815290604052805190602001206000846040518082805190602001908083835b6020831061047a5780518252602082019150602081019050602083039250610457565b6001836020036101000a0380198251168184511680821785525050505050509050019150509081526020016040518091039020600201604051602001808280546001816001161561010002031660029004801561050e5780601f106104ec57610100808354040283529182019161050e565b820191906000526020600020905b8154815290600101906020018083116104fa575b5050915050604051602081830303815290604052805190602001201415610538576001905061053d565b600090505b92915050565b6000856000836040518082805190602001908083835b6020831061057c5780518252602082019150602081019050602083039250610559565b6001836020036101000a038019825116818451168082178552505050505050905001915050908152602001604051809103902060000160006101000a81548173ffffffffffffffffffffffffffffffffffffffff021916908373ffffffffffffffffffffffffffffffffffffffff160217905550846000836040518082805190602001908083835b602083106106275780518252602082019150602081019050602083039250610604565b6001836020036101000a038019825116818451168082178552505050505050905001915050908152602001604051809103902060010190805190602001906106709291906107f1565b50836000836040518082805190602001908083835b602083106106a85780518252602082019150602081019050602083039250610685565b6001836020036101000a038019825116818451168082178552505050505050905001915050908152602001604051809103902060020190805190602001906106f19291906107f1565b50826000836040518082805190602001908083835b602083106107295780518252602082019150602081019050602083039250610706565b6001836020036101000a038019825116818451168082178552505050505050905001915050908152602001604051809103902060030181905550816000836040518082805190602001908083835b6020831061079a5780518252602082019150602081019050602083039250610777565b6001836020036101000a038019825116818451168082178552505050505050905001915050908152602001604051809103902060040190805190602001906107e39291906107f1565b506001905095945050505050565b828054600181600116156101000203166002900490600052602060002090601f016020900481019282601f1061083257805160ff1916838001178555610860565b82800160010185558215610860579182015b8281111561085f578251825591602001919060010190610844565b5b50905061086d9190610871565b5090565b61089391905b8082111561088f576000816000905550600101610877565b5090565b9056fea265627a7a72315820edc5d6bfb35c471dc0c008c6b1168aecf21854f88d4048a56c9201c0ed624ca464736f6c63430005100032",
  "source": "pragma solidity >=0.4.0 <0.6.0;\n\ncontract AuthContract {\n    // authentication function\n\n    struct UserDetail {\n        address addr;\n        string name;\n        string password;\n        uint256 balance;\n        string CNIC;\n    }\n\n    mapping(string => UserDetail) user;\n\n    // user registration function\n    function register(\n        address _address,\n        string memory _name,\n        string memory _password,\n        uint256 _balance,\n        string memory _cnic\n    ) public returns (bool) {\n        user[_cnic].addr = _address;\n        user[_cnic].name = _name;\n        user[_cnic].password = _password;\n        user[_cnic].balance = _balance;\n        user[_cnic].CNIC = _cnic;\n        return true;\n    }\n\n    function login(string memory _cnic, string memory _password)\n        public\n        returns (bool)\n    {\n        if (keccak256(abi.encodePacked(user[_cnic].password)) == keccak256(abi.encodePacked(_password))) {\n            return true;\n        } else {\n            return false;\n        }\n    }\n}\n",
  "sourcePath": "/home/zaryab/VSCodeProjects/dapp-authentication/contracts/Auth.sol",
  "compiler": {
    "name": "solc",
    "version": "0.5.16+commit.9c3226ce.Emscripten.clang"
  },
  "schemaVersion": "3.4.1",
  "updatedAt": "2021-08-11T06:42:19.972Z",
  "devdoc": {
    "methods": {}
  },
  "userdoc": {
    "methods": {}
  }
}