{
  "contractName": "AuthContract",
  "abi": [
    {
      "constant": false,
      "inputs": [
        {
          "internalType": "address",
          "name": "_address",
          "type": "address"
        },
        {
          "internalType": "string",
          "name": "_name",
          "type": "string"
        },
        {
          "internalType": "string",
          "name": "_password",
          "type": "string"
        },
        {
          "internalType": "uint256",
          "name": "_balance",
          "type": "uint256"
        },
        {
          "internalType": "string",
          "name": "_cnic",
          "type": "string"
        }
      ],
      "name": "register",
      "outputs": [
        {
          "internalType": "bool",
          "name": "",
          "type": "bool"
        }
      ],
      "payable": false,
      "stateMutability": "nonpayable",
      "type": "function"
    }
  ],
  "bytecode": "0x608060405234801561001057600080fd5b506105e3806100206000396000f3fe608060405234801561001057600080fd5b506004361061002b5760003560e01c8063ecbabfbc14610030575b600080fd5b610241600480360360a081101561004657600080fd5b81019080803573ffffffffffffffffffffffffffffffffffffffff1690602001909291908035906020019064010000000081111561008357600080fd5b82018360208201111561009557600080fd5b803590602001918460018302840111640100000000831117156100b757600080fd5b91908080601f016020809104026020016040519081016040528093929190818152602001838380828437600081840152601f19601f8201169050808301925050505050505091929192908035906020019064010000000081111561011a57600080fd5b82018360208201111561012c57600080fd5b8035906020019184600183028401116401000000008311171561014e57600080fd5b91908080601f016020809104026020016040519081016040528093929190818152602001838380828437600081840152601f19601f82011690508083019250505050505050919291929080359060200190929190803590602001906401000000008111156101bb57600080fd5b8201836020820111156101cd57600080fd5b803590602001918460018302840111640100000000831117156101ef57600080fd5b91908080601f016020809104026020016040519081016040528093929190818152602001838380828437600081840152601f19601f82011690508083019250505050505050919291929050505061025b565b604051808215151515815260200191505060405180910390f35b6000856000836040518082805190602001908083835b602083106102945780518252602082019150602081019050602083039250610271565b6001836020036101000a038019825116818451168082178552505050505050905001915050908152602001604051809103902060000160006101000a81548173ffffffffffffffffffffffffffffffffffffffff021916908373ffffffffffffffffffffffffffffffffffffffff160217905550846000836040518082805190602001908083835b6020831061033f578051825260208201915060208101905060208303925061031c565b6001836020036101000a03801982511681845116808217855250505050505090500191505090815260200160405180910390206001019080519060200190610388929190610509565b50836000836040518082805190602001908083835b602083106103c0578051825260208201915060208101905060208303925061039d565b6001836020036101000a03801982511681845116808217855250505050505090500191505090815260200160405180910390206002019080519060200190610409929190610509565b50826000836040518082805190602001908083835b60208310610441578051825260208201915060208101905060208303925061041e565b6001836020036101000a038019825116818451168082178552505050505050905001915050908152602001604051809103902060030181905550816000836040518082805190602001908083835b602083106104b2578051825260208201915060208101905060208303925061048f565b6001836020036101000a038019825116818451168082178552505050505050905001915050908152602001604051809103902060040190805190602001906104fb929190610509565b506001905095945050505050565b828054600181600116156101000203166002900490600052602060002090601f016020900481019282601f1061054a57805160ff1916838001178555610578565b82800160010185558215610578579182015b8281111561057757825182559160200191906001019061055c565b5b5090506105859190610589565b5090565b6105ab91905b808211156105a757600081600090555060010161058f565b5090565b9056fea265627a7a72315820cf90859b9ca3fe4b601d2260e1441ea24cc455d1fa10db507adbac57920890c864736f6c63430005100032",
  "source": "pragma solidity >=0.4.0 <0.6.0;\n\ncontract AuthContract {\n    // authentication function\n\n    struct UserDetail {\n        address addr;\n        string name;\n        string password;\n        uint balance;\n        string CNIC;\n    }\n\n\n    mapping(string => UserDetail) user;\n\n    // user registration function\n    function register(address _address, string memory _name, string memory _password, uint _balance, string memory _cnic) public returns (bool) {\n        user[_cnic].addr = _address;\n        user[_cnic].name = _name;\n        user[_cnic].password = _password;\n        user[_cnic].balance = _balance;\n        user[_cnic].CNIC = _cnic;\n        return true;\n    }\n}\n",
  "sourcePath": "/home/zaryab/VSCodeProjects/dapp-authentication/contracts/Auth.sol",
  "compiler": {
    "name": "solc",
    "version": "0.5.16+commit.9c3226ce.Emscripten.clang"
  },
  "schemaVersion": "3.4.1",
  "updatedAt": "2021-08-11T06:33:12.862Z",
  "devdoc": {
    "methods": {}
  },
  "userdoc": {
    "methods": {}
  }
}